{
  "contractName": "LuckyNumber",
  "abi": [
    {
      "anonymous": false,
      "inputs": [
        {
          "indexed": false,
          "internalType": "uint256",
          "name": "num",
          "type": "uint256"
        },
        {
          "indexed": false,
          "internalType": "address",
          "name": "sender",
          "type": "address"
        }
      ],
      "name": "numberAdded",
      "type": "event"
    },
    {
      "anonymous": false,
      "inputs": [
        {
          "indexed": false,
          "internalType": "uint256",
          "name": "num",
          "type": "uint256"
        },
        {
          "indexed": false,
          "internalType": "address",
          "name": "sender",
          "type": "address"
        }
      ],
      "name": "numberGot",
      "type": "event"
    },
    {
      "constant": false,
      "inputs": [
        {
          "internalType": "uint256",
          "name": "_num",
          "type": "uint256"
        }
      ],
      "name": "setNum",
      "outputs": [],
      "payable": false,
      "stateMutability": "nonpayable",
      "type": "function"
    },
    {
      "constant": false,
      "inputs": [
        {
          "internalType": "address",
          "name": "_myAddress",
          "type": "address"
        }
      ],
      "name": "getNum",
      "outputs": [
        {
          "internalType": "uint256",
          "name": "",
          "type": "uint256"
        }
      ],
      "payable": false,
      "stateMutability": "nonpayable",
      "type": "function"
    }
  ],
  "bytecode": "0x608060405234801561001057600080fd5b50610477806100206000396000f3fe608060405234801561001057600080fd5b50600436106100365760003560e01c806370b129881461003b578063cd16ecbf14610093575b600080fd5b61007d6004803603602081101561005157600080fd5b81019080803573ffffffffffffffffffffffffffffffffffffffff1690602001909291905050506100c1565b6040518082815260200191505060405180910390f35b6100bf600480360360208110156100a957600080fd5b8101908080359060200190929190505050610109565b005b60008060008373ffffffffffffffffffffffffffffffffffffffff1673ffffffffffffffffffffffffffffffffffffffff168152602001908152602001600020549050919050565b600160003373ffffffffffffffffffffffffffffffffffffffff1673ffffffffffffffffffffffffffffffffffffffff16815260200190815260200160002060009054906101000a900460ff16156101ac576040517f08c379a000000000000000000000000000000000000000000000000000000000815260040180806020018281038252602681526020018061041d6026913960400191505060405180910390fd5b6002600082815260200190815260200160002060009054906101000a900460ff1615610223576040517f08c379a00000000000000000000000000000000000000000000000000000000081526004018080602001828103825260228152602001806103c06022913960400191505060405180910390fd5b6000811015801561023657506127108111155b61028b576040517f08c379a000000000000000000000000000000000000000000000000000000000815260040180806020018281038252603b8152602001806103e2603b913960400191505060405180910390fd5b806000803373ffffffffffffffffffffffffffffffffffffffff1673ffffffffffffffffffffffffffffffffffffffff1681526020019081526020016000208190555060018060003373ffffffffffffffffffffffffffffffffffffffff1673ffffffffffffffffffffffffffffffffffffffff16815260200190815260200160002060006101000a81548160ff02191690831515021790555060016002600083815260200190815260200160002060006101000a81548160ff0219169083151502179055507ffd478f24069853ff60c9ee56605c1b82b57bab14d7706c846207a00dc69b38508133604051808381526020018273ffffffffffffffffffffffffffffffffffffffff1673ffffffffffffffffffffffffffffffffffffffff1681526020019250505060405180910390a15056fe54686973206e756d6265722068617320616c7265616479206265656e2074616b656e54686973206e756d626572206973206f7574206f6620626f756e64732e204d757374206265206265747765656e203020616e642031302c3030302e546869732077616c6c657420616c7265616479206861732061206c75636b79206e756d626572a265627a7a7231582059a111165b65b30f13ce1598ca11ba0e7b07ed100afafc50b26c1c32e87e5b1a64736f6c63430005100032",
  "source": "pragma solidity >=0.4.26;\n\ncontract LuckyNumber {\n    mapping(address => uint256) numbers;\n    mapping(address => bool) hasNumber;\n    mapping(uint256 => bool) allNums;\n\n    event numberAdded(uint256 num, address sender);\n    event numberGot(uint256 num, address sender);\n\n    function setNum(uint256 _num) public {\n        // If user already has lucky number, num is out of bounds, or number has been taken by another user, reject\n        require(\n            !hasNumber[msg.sender],\n            \"This wallet already has a lucky number\"\n        );\n        require(!allNums[_num], \"This number has already been taken\");\n        require(\n            _num >= 0 && _num <= 10000,\n            \"This number is out of bounds. Must be between 0 and 10,000.\"\n        );\n\n        // On setNum, set the senders number to the chosen num and hasNumber to true\n        numbers[msg.sender] = _num;\n        hasNumber[msg.sender] = true;\n\n        // Add taken number to allNums so nobody else can take it.\n        allNums[_num] = true;\n\n        // Emit to frontend that a number has been added to block.\n        emit numberAdded(_num, msg.sender);\n    }\n\n    //Get the senders lucky number based on wallet address\n    function getNum(address _myAddress) public returns (uint256) {\n        return numbers[_myAddress];\n        emit numberGot(numbers[_myAddress], _myAddress);\n    }\n}\n",
  "sourcePath": "/Users/Ryan/Desktop/Folders/Crypto/LuckyCoin/contracts/LuckyNumber.sol",
  "compiler": {
    "name": "solc",
    "version": "0.5.16+commit.9c3226ce.Emscripten.clang"
  },
  "schemaVersion": "3.3.4",
  "updatedAt": "2021-04-18T01:55:17.992Z",
  "devdoc": {
    "methods": {}
  },
  "userdoc": {
    "methods": {}
  }
}